:100000000C9443000C9458000C9458000C94580025
:100010000C9458000C9458000C9458000C94580000
:100020000C9458000C9458000C9458000C945800F0
:100030000C9458000C9458000C9458000C945800E0
:100040000C9458000C9458000C9458000C945800D0
:100050000C94580073007500770078007F007B00D7
:100060007E007D0097009A009E00A000A200A500DF
:10007000A700F403F603F803FA03FC03FE030004ED
:1000800002040404060411241FBECFE5D8E0DEBF3D
:10009000CDBF10E0A0E6B0E0EAEBFAE002C00590C8
:1000A0000D92A639B107D9F70E941C040C945B0588
:1000B0000C940000EF920F931F93813041F020F0D9
:1000C000823039F43F9A04C03F983E9802C03F986E
:1000D0003E9A862F90E08830910590F4FC01E65D11
:1000E000FF4F0C94190538980BC0389A09C0399AFB
:1000F000389A399A05C0389A02C0389A399A3A9A89
:10010000442321F0413019F43D9A01C03D98222347
:1001100021F0213019F4359801C0359A10E00730EC
:100120001105C0F4F801EE5CFF4F0C941905309AEC
:10013000319802C03098319A32980CC0309AFBCF77
:10014000309801C0309A319804C0309801C0309A7C
:10015000319A329AEE2029F081E0E81203C03398F8
:1001600001C0339A379A1F910F91EF900895369AF4
:10017000662399F0349BFECF64B175B144EF51E032
:10018000649F9001659F300D749F300D1124232FC3
:1001900026952695FC01208311820895442379F148
:1001A000413009F05FC0813079F028F08230A9F049
:1001B0008330E1F008952AB381E090E001C0880F18
:1001C0006A95EAF7822B2CC027B381E090E001C04A
:1001D000880F6A95EAF7822B2EC024B381E090E065
:1001E00001C0880F6A95EAF7822B30C021B381E005
:1001F00090E001C0880F6A95EAF7822B32C0813007
:1002000089F028F08230C9F0833011F108952AB3C3
:1002100081E090E001C0880F6A95EAF7809582231B
:100220008ABB089527B381E090E001C0880F6A95EA
:10023000EAF78095822387BB089524B381E090E09C
:1002400001C0880F6A95EAF78095822384BB0895E0
:1002500021B381E090E001C0880F6A95EAF78095AC
:10026000822381BB0895442379F1413009F05FC0B6
:10027000813079F028F08230A9F08330E1F00895E0
:100280002BB381E090E001C0880F6A95EAF7822BDA
:100290002CC028B381E090E001C0880F6A95EAF78E
:1002A000822B2EC025B381E090E001C0880F6A95B3
:1002B000EAF7822B30C022B381E090E001C0880FC2
:1002C0006A95EAF7822B32C0813089F028F08230BB
:1002D000C9F0833011F108952BB381E090E001C0A3
:1002E000880F6A95EAF7809582238BBB089528B31F
:1002F00081E090E001C0880F6A95EAF7809582233B
:1003000088BB089525B381E090E001C0880F6A950D
:10031000EAF78095822385BB089522B381E090E0BF
:1003200001C0880F6A95EAF78095822382BB089501
:10033000FA01813041F028F0823039F0833039F011
:10034000089589B305C086B303C083B301C080B3E9
:1003500090E002C0959587956A95E2F78170808359
:100360000895813081F028F08230B9F08330F9F0BF
:1003700008952BB381E090E001C0880F6A95EAF7F9
:10038000822B8BBB089528B381E090E001C0880FD9
:100390006A95EAF7822B88BB089525B381E090E047
:1003A00001C0880F6A95EAF7822B85BB089522B3B6
:1003B00081E090E001C0880F6A95EAF7822B82BB4A
:1003C000089541E060E083E00E94CE0041E061E0FA
:1003D00083E00E94CE0041E062E083E00E94CE0014
:1003E00040E064E083E00E94CE0040E065E083E00E
:1003F0000E94CE0040E066E083E00E94CE0040E034
:1004000067E083E00E94CE0064E083E00E94B101D7
:1004100065E083E00E94B10166E083E00E94B101E3
:1004200067E083E00E94B10141E060E083E00E9468
:10043000330141E061E083E00E94330141E062E08A
:1004400083E00C943301BF92CF92DF92EF92FF9240
:100450000F931F93CF93DF931F92CDB7DEB719820F
:1004600080E6E82E80E0F82EB12C10E040E0612F0D
:1004700083E00E943301670104E0AE014F5F5F4FEC
:10048000602F83E00E9498018981811113C0F601D9
:10049000B0808981811108C0AE014F5F5F4F602F2E
:1004A00083E00E949801F5CF8FE39CE90197F1F773
:1004B00000C000000F5F94E0C90ED11C0830E9F6BF
:1004C00041E0612F83E00E9433011F5FEFEFEE1ADE
:1004D000FE0A133059F68B2D0F90DF91CF911F91AB
:1004E0000F91FF90EF90DF90CF90BF900895CF9342
:1004F000C82F40E061E081E00E94330140E062E00B
:1005000081E00E94330140E063E081E00E9433011A
:100510008BB39C2F907F8F70892B8BBB41E063E066
:1005200081E00E9433018FE99FE00197F1F700C05D
:10053000000040E063E081E00E9433012BB330E132
:10054000C39FC0011124922F9F70892B8BBB41E068
:1005500063E081E00E9433018FE99FE00197F1F7AA
:1005600000C0000040E063E081E00E9433018FE1C1
:100570009EE40197F1F700C00000CF91089541E09B
:1005800061E081E00E94CE0041E062E081E00E94F3
:10059000CE0041E063E081E00E94CE0041E064E0F3
:1005A00080E00E94CE0041E065E080E00E94CE0045
:1005B00041E066E080E00E94CE0041E067E080E03C
:1005C0000E94CE002FEF81EE94E0215080409040B9
:1005D000E1F700C0000083E30E94770282E30E94FB
:1005E000770288E20E9477028CE00E94770281E025
:1005F0000E94770286E00E94770282E00C947702E4
:10060000CF93C82F41E061E081E00E94330140E0D8
:1006100062E081E00E94330140E063E081E00E94FB
:1006200033018C2F807F8BBB41E063E081E00E942F
:1006300033018FE99FE00197F1F700C0000040E02F
:1006400063E081E00E943301C295C07FCBBB41E0F3
:1006500063E081E00E9433018FE99FE00197F1F7A9
:1006600000C0000040E063E081E00E9433018FE1C0
:100670009EE40197F1F700C00000CF9108950F9319
:100680001F93CF938C01C0E0F801EC0FF11D808126
:10069000882321F00E940003CF5FF6CFCF911F91F6
:1006A0000F910895CF93DF9300D0CDB7DEB790E8D8
:1006B000998390EC9A83FE01E80FF11D8181860FEA
:1006C0000F900F90DF91CF910C9477024F925F9231
:1006D0006F927F928F929F92AF92BF92CF92DF9252
:1006E000EF92FF92CF93DF936B017C0197FF0CC0D9
:1006F0008DE20E940003F094E094D094C094C11C59
:10070000D11CE11CF11C0DC082E0C816D104E1042B
:10071000F1043CF4CD28CE28CF2891F0C12CD12C67
:100720007601C7E0D0E080E4882E82E4982E8FE046
:10073000A82EB12C9AE0492E512C612C712C1CC092
:1007400080E3DF91CF91FF90EF90DF90CF90BF904B
:10075000AF909F908F907F906F905F904F900C9490
:100760000003C501B401A30192010E94FA044901EA
:100770005A01219709F44EC0C701B601A5019401A1
:100780000E94FA04121613061406150654F721C027
:10079000C701B601A50194010E94FA04CA01B9017A
:1007A000A50194010E94EA042B013C010E94FA0475
:1007B0002A303105A0F0C418D508E608F708C501AD
:1007C000B4012AE030E040E050E00E94FA04490120
:1007D0005A01181419041A041B04D4F21BC0F9019D
:1007E000E75CFF4F0C94190580E311C081E30FC053
:1007F00082E30DC083E30BC084E309C085E307C037
:1008000086E305C087E303C088E301C089E30E9453
:100810000003D1CFDF91CF91FF90EF90DF90CF9089
:10082000BF90AF909F908F907F906F905F904F9010
:10083000089581E00C947702CF93DF93CDB7DEB7B4
:1008400060970FB6F894DEBF0FBECDBF5E0127E004
:10085000A20EB11C86E0F50111928A95E9F781E3B9
:100860008F8389E3888784E3898785E38A871D8668
:100870001E861F86188A0E94BF020E94E1010E9404
:10088000BF020E94D904E12CF12C00E010E0D12C31
:100890000E151F0508F474C0F1E0DF1609F473C0EB
:1008A0000E942302C82E882399F323E282135BC09F
:1008B0000115110509F457C0F501EE0DFF1DA1E06A
:1008C000B0E0AC0FBD1FAE0DBF1D91918D9198177B
:1008D00009F43FC00E94190460E080E00E945203C6
:1008E0008FEF91EEE4E081509040E040E1F700C0EE
:1008F000000080E790E00E943F03FFEF23ED80E3DC
:10090000F15020408040E1F700C000000E9419042F
:1009100060E080E00E94520380E890E00E943F0384
:100920009FEFE3EDF0E39150E040F040E1F700C0CD
:1009300000000E94190460E080E00E9452032FEF43
:1009400081EE94E0215080409040E1F700C000002B
:100950009ACFC70101968017910718F0DD24D39430
:1009600097CF7C01B2CF8C2D0E940003E1E0F0E034
:10097000EC0FFD1FE00FF11FC0820F5F1F4F88CFEC
:10098000E1E0DE1285CFCE010D960E94E7040E94C1
:1009900019046D857E858F8598890E946603FFEF17
:1009A00029E688E1F15020408040E1F700C00000D6
:1009B000D5CFEF920F93EE24E39406E020E040E0E1
:1009C00061E081E00E945A000F91EF90089561E08C
:1009D0000C94B700DB018F939F930E941F05BF917A
:1009E000AF91A29F800D911DA39F900DB29F900D7E
:1009F00011240895052E97FB1EF400940E94110502
:100A000057FD07D00E942A0507FC03D04EF40C9432
:100A1000110550954095309521953F4F4F4F5F4FB1
:100A2000089590958095709561957F4F8F4F9F4F5A
:100A30000895EE0FFF1F0590F491E02D09940E9498
:100A40004C05A59F900DB49F900DA49F800D911D06
:100A500011240895A1E21A2EAA1BBB1BFD010DC093
:100A6000AA1FBB1FEE1FFF1FA217B307E407F5075E
:100A700020F0A21BB30BE40BF50B661F771F881F3A
:100A8000991F1A9469F760957095809590959B01D0
:100A9000AC01BD01CF010895A29FB001B39FC00179
:100AA000A39F700D811D1124911DB29F700D811D9A
:0A0AB0001124911D0895F894FFCF62
:100ABA003132330034353600373839002A302300D2
:100ACA0057726F6E672050617373776F726421007B
:100ADA005265656E7465722074686520506173731F
:060AEA00776F726400004A
:00000001FF
